:020000040800F2
:10000000800400202D230008290700082B07000882
:100010002D0700082F070008310700080000000026
:10002000000000000000000000000000330700088E
:1000300035070008000000003707000839070008EE
:100040006D23000871230008752300087923000838
:100050007D230008812300088523000889230008E8
:100060008D23000891230008952300089923000898
:100070009D230008A1230008A5230008A923000848
:10008000AD230008B1230008B5230008B9230008F8
:10009000BD230008C1230008C5230008410700084C
:1000A000CD230008D1230008D5230008D923000858
:1000B0006B090008E123000849090008E92300084A
:1000C000ED230008F1230008F5230008F9230008B8
:1000D000FD2300084D08000805240008CF0800088B
:1000E0000D24000811240008152400081924000814
:1000F0001D240008212400082524000829240008C4
:100100002D24000831240008352400083924000873
:100110003D24000841240008452400084924000823
:100120004D240008512400085524000859240008D3
:1001300080B5DFF84C1488420AD101214FF40060E9
:1001400000F0C0FA00214FF4006000F0BBFADDE0DF
:10015000B0F1804F08D10121012000F0C3FA002145
:10016000012000F0BFFAD1E0DFF81814884208D16E
:100170000121022000F0B6FA0021022000F0B2FABC
:10018000C4E0DFF80414884208D10121042000F003
:10019000A9FA0021042000F0A5FAB7E0DFF8EC137B
:1001A000884208D10121082000F09CFA0021082093
:1001B00000F098FAAAE0DFF8D813884208D10121AC
:1001C000102000F08FFA0021102000F08BFA9DE043
:1001D000DFF8C013884208D10121202000F082FA04
:1001E0000021202000F07EFA90E0DFF8AC13884276
:1001F0000AD101214FF4005000F064FA00214FF4BD
:10020000005000F05FFA81E0DFF8901388420AD1D5
:1002100001215FF4002000F055FA00215FF4002076
:1002200000F050FA72E0DFF8781388420AD1012119
:100230005FF4801000F046FA00215FF4801000F0B7
:1002400041FA63E0DFF85C1388420AD101215FF4D0
:10025000001000F037FA00215FF4001000F032FACD
:1002600054E0DFF84413884208D10121402000F017
:1002700039FA0021402000F035FA47E0DFF82C136E
:10028000884208D10121802000F02CFA0021802032
:1002900000F028FA3AE0DFF8181388420AD1012169
:1002A0004FF4807000F01EFA00214FF4807000F0CF
:1002B00019FA2BE0DFF8FC1288420AD101215FF421
:1002C000803000F0FFF900215FF4803000F0FAF98F
:1002D0001CE0DFF8E41288420AD101215FF400300B
:1002E00000F0F0F900215FF4003000F0EBF90DE0D0
:1002F000DFF8C812884209D101215FF4802000F0A4
:10030000E1F900215FF4802000F0DCF901BD00225A
:1003100003881A00DFF86832984212D0DFF878328A
:1003200098420ED0B0F1804F0BD0DFF8583298428F
:1003300007D0DFF85432984203D0DFF850329842A9
:1003400004D14FF68F731A404B881A43DFF84032BE
:10035000984208D0DFF83C32984204D04FF6FF4371
:100360001A40CB881A4302808A8882850A880285CF
:10037000DFF80C2290420FD0DFF81C2290420BD005
:10038000DFF83022904207D0DFF82C22904203D0D1
:10039000DFF82822904201D1097A01860121818269
:1003A000704770B4002300240022058C4FF6FE76BF
:1003B00035400584058C2C0085882A00058B2B0090
:1003C0004FF68F752B404FF6FC752B400D882B4355
:1003D0004FF6FD752C400D892C434D882C43DFF8DA
:1003E000A051A8420FD0DFF8B051A8420BD0DFF8DF
:1003F000C451A84207D0DFF8C051A84203D0DFF8AB
:10040000BC51A84213D14FF6F7752C404D892C43AF
:100410004FF6FB752C408D882C434FF6FF652A4024
:100420004FF6FF552A408D892A43CD892A43828081
:100430000383C9888186048470BC704770B400232C
:1004400000240022058C4FF6EF7635400584058C9C
:100450002C0085882A00058B2B0048F6FF752B4061
:100460004FF6FF452B400D8853EA05234FF6DF7505
:100470002C400D8954EA05144D8854EA0514DFF820
:100480000051A84203D0DFF83851A84217D14FF6E7
:100490007F752C404D8954EA05144FF6BF752C40EA
:1004A0008D8854EA05144FF6FF352A404FF2FF7548
:1004B0002A408D8952EA8502CD8952EA85028280DE
:1004C0000383C9880187048470BC7047C9B20029BE
:1004D00004D0018851F00101018004E001884FF649
:1004E000FE72114001807047D2B2002A03D0828987
:1004F0001143818103E0828932EA010181817047E1
:10050000018582827047C9B2002904D0018851F068
:100510008001018004E001884FF67F721140018064
:1005200070470022038B1A004FF6F7731A400A43F4
:10053000028370470022038B1A004FF2FF731A40A8
:1005400052EA01220283704730B4002200230024C3
:10055000058A0D402B008089084004009BB2002BC7
:1005600004D0A4B2002C01D0012200E0002210002F
:10057000C0B230BC704789B2C943018270470000E5
:10058000002C01400004004000080040000C004026
:10059000001000400014004000340140004C0140B5
:1005A000005001400054014000180040001C004071
:1005B000002000400040014000440140004801404C
:1005C0000034014030B400220021002300244D4DAE
:1005D0002D6815F00C052A00002A04D0042A05D045
:1005E000082A06D021E04849016020E04649016020
:1005F0001DE04449096811F47011424A126812F46E
:100600008033890C891C002B03D1404A514301607F
:100610000AE03C4A1268920303D53C4A5143016008
:1006200002E0394A5143016001E037490160354930
:10063000096811F0F00212093549545C0168E14083
:1006400041603049096811F4E062120A3049545C93
:100650004168E14081602B49096811F46052D20A77
:100660002B49545C4168E140C1602649096811F496
:100670004042920B2749545CC168B1FBF4F101611F
:1006800030BC7047C9B2002905D023490968084326
:100690002149086005E02049096831EA00001E4947
:1006A00008607047C9B2002905D01C490968084391
:1006B0001A49086005E01949096831EA000017493C
:1006C00008607047C9B2002905D015490968084378
:1006D0001349086005E01249096831EA0000104931
:1006E00008607047C9B2002905D00E49096808435F
:1006F0000C49086005E00B49096831EA0000094926
:10070000086070470410024000127A0000093D00A2
:100710000000002024000020181002401C1002409D
:100720000C100240101002407047FEE7FEE7FEE7A3
:10073000FEE770477047704780B500F01CFA01BDB6
:1007400080B54FF4007000F085FA002854D04FF4C3
:10075000007000F091FA0120DFF860130860DFF804
:1007600060030068002802D0012809D040E0012081
:10077000DFF84C1308600020DFF84813086064E0DD
:100780000220DFF83C130860DFF838030068002817
:1007900009D0022811D00BD3042818D012D3062870
:1007A0001ED019D320E00020DFF81C1308604CE0B5
:1007B0000120DFF81413086047E00220DFF8081377
:1007C000086042E00320DFF8001308603DE00420E9
:1007D000DFF8F412086038E00520BB49086034E017
:1007E0000620B949086030E00020B74908602CE0D5
:1007F0000220B349086028E04FF4807000F02AFA24
:10080000002822D04FF4807000F036FA0120AB4966
:100810000860AB480068002802D0012801D00DE034
:1008200013E0A8480068401CA6490860A548006875
:10083000072802DB0020A349086006E00120A04948
:1008400008600020A0490860FFE701BD80B52021B5
:100850009E4800F0BCFA012833D120219B4800F0CB
:10086000C3FA9B48007800280BD1984800F0ABFAF7
:10087000FF282BD101209649087000209549087067
:1008800024E0924800F09FFAFF280DD10020904903
:10089000087090480078032802D101208E49086032
:1008A00000208C49087011E0884800F08CFA8B49D0
:1008B000884A1278505487480078401C854908704F
:1008C00004E04FF48071814800F08EFA01BD80B5DC
:1008D0002021834800F07BFA01282FD12021804875
:1008E00000F082FA7F48007800280BD17C4800F0A5
:1008F0006AFA552827D101207A49087000207A49E0
:10090000087020E0764800F05EFA7849764A12785E
:10091000505475480078401C73490870724800783C
:10092000092810D100206F49087001207049086023
:1009300000F060FA00206C49087004E04FF4807108
:10094000674800F051FA01BD80B501216948FFF701
:10095000FBFD002808D001216648FFF70CFE664821
:100960000068401C6449086001BD80B501215FF04A
:100970008040FFF7E9FD002800F09F8001215FF033
:100980008040FFF7F8FD5D480088401C5B49088007
:100990005A480088B0F5616F02D10020574908809D
:1009A00056480088B0F5FA7F1FD14021544800F026
:1009B000FCFA0221534800F0F8FA0121514800F0F6
:1009C000F4FA80214E4800F0F0FA10214C4800F073
:1009D000ECFA20214A4800F0E8FA0421484800F0E7
:1009E000E4FA0821464800F0E0FA44480088464905
:1009F0000978490001F24E21884203D14021404844
:100A000000F0D6FA3D4800883F494978490001F294
:100A10004E21884203D102213A4800F0C9FA3748F2
:100A2000008839498978490001F24E21884203D172
:100A30000121344800F0BCFA304800883249C978B6
:100A4000490001F24E21884203D180212C4800F058
:100A5000AFFA2A4800882C490979490001F24E2151
:100A6000884203D11021264800F0A2FA23480088CA
:100A700025494979490001F24E21884203D12021BC
:100A80001F4800F095FA1D4800881F4989794900E0
:100A900001F24E21884203D10421194800F088FA5E
:100AA000164800881849C979490001F24E21884248
:100AB00003D10821124800F07BFA01BD5C00002040
:100AC000540000205800002064000020003801403D
:100AD00076000020780000203C000020600000200C
:100AE00000480040770000207900002030000020FE
:100AF0004000002000080040680000207400002032
:100B000000080140000C01401000002040B2002805
:100B100008D50901254A40B210F00F00801800F8EE
:100B2000041C03E00901224A40B28154704780B599
:100B3000411EB1F1807F01D301200EE0401E1D490E
:100B400008600F215FF0FF30FFF7E0FF00201A4937
:100B50000860072019490860002002BD01B4009810
:100B60004FF47A7148431849086017480068002814
:100B7000FBD101B0704714480068002804D0124827
:100B80000068401E10490860704780B50C48006836
:100B90000C49B0FBF1F0FFF7CAFF002800D0FEE7D8
:100BA00000215FF0FF30FFF7B1FF01BD18ED00E05D
:100BB00000E400E014E000E018E000E010E000E0F5
:100BC0002800002040420F007000002000212C4A25
:100BD00011008279002A35D0294A126803689A43A5
:100BE000274B1A60274A126803689A43254B1A60FC
:100BF000027951180A6803681A430A602249096891
:100C000002689143204A11602049096802689143B3
:100C10001E4A1160417910290CD11B4909680268EC
:100C20001143194A116019490968006808431749B6
:100C300008600EE01249427951180A6800681043B2
:100C4000086006E0027951180A68006832EA00007C
:100C50000860704700210022094B1B6803401A00FE
:100C60000B4B1B68034203D0002A01D0012100E096
:100C700000210800C0B270470549086070470000B5
:100C80000004014004040140080401400C04014038
:100C900014040140F0B585B004000D0000200021CF
:100CA000002200230026AF89002F2600208A4CF660
:100CB000FF710840E98808432082A0894EF6F311AD
:100CC0000840A9882A8911436A8911430843A081F1
:100CD000A08A4FF6FF410840A9890843A08200A8D6
:100CE000FFF770FC1B48864201D1039900E002998E
:100CF000A089000407D5192000FB01F029684900EC
:100D0000B0FBF1F206E0192000FB01F02968890030
:100D1000B0FBF1F26420B2FBF0F0000101096423A2
:100D200003FB1123A189090408D5D90032316422BB
:100D3000B1FBF2F111F00701084307E0190132316C
:100D40006422B1FBF2F111F00F010843208105B0DC
:100D5000F0BD000000380140C9B2002904D08189EB
:100D600051F40051818104E081894DF6FF721140F8
:100D700081817047F0B4002300240025002689B249
:100D800040F66A17B94206000800C0B24309DBB258
:100D900089B211F01F04012010FA04F5012B01D1D2
:100DA0000C3604E0022B01D1103600E01436D2B22A
:100DB000002A03D030682843306002E03068A8433E
:100DC0003060F0BC70478088C005C00D70470022BD
:100DD00089B2B1F5007F0088084201D0012200E00D
:100DE00000221000C0B2704789B28A0589B2C94397
:100DF0000180704780B52C480068002852D0002040
:100E0000294908602948007853284BD12748807821
:100E10002649497851EA002000F0F8F80022244BD6
:100E200000F00AF90022234B00F040FA00F020FB0A
:100E3000214908601D4800791C49C97851EA002001
:100E400000F0E4F800221A4B00F0F6F80022194BEB
:100E500000F02CFA00F00CFB184908601348807968
:100E60001249497951EA002000F0D0F80022104BD5
:100E700000F0E2F800220F4B00F018FA00F0F8FA48
:100E80000F4908600948007A0849C97951EA0020E9
:100E900000F0BCF800220B4B00F0CEF800F0E8FAAE
:100EA0000949086001BD000040000020300000201A
:100EB0000000E04000806640440000204800002020
:100EC0004C0000200000594050000020F0B40022E7
:100ED0000026002400250023002791F803C01CF001
:100EE0000F0C624691F803C05FEACC6C01D58B7899
:100EF0001A430B781B0621D00368002406E0CD7846
:100F0000482D02D10125A5400561641C082C14D28E
:100F10000125A5400E882E40AE42F6D1A5000F2631
:100F200016FA05F7BB4312FA05F52B43CD78282DA9
:100F3000E5D10125A5404561E7E703600B88FF2B5C
:100F400026DD4368002420E0012514F10806B540A1
:100F50000E882E40AE4217D1A5000F2616FA05F7CF
:100F6000BB4312FA05F52B43CD78282D04D101257A
:100F700014F10806B5404561CD78482D04D101250E
:100F800014F10806B5400561641C082CDCD34360ED
:100F9000F0BC70470022806889B2084201D001226B
:100FA00000E000221000C0B2704789B201617047B2
:100FB00089B24161704710B400220F2311F003047D
:100FC000E4B2A400A3401A000F4BC9B28C1053F82E
:100FD000243033EA02020C4BC9B28C1043F82420AF
:100FE000094AC9B28B1052F82320C0B211F0030392
:100FF000DBB29B0098401043034AC9B2891042F803
:10100000210010BC7047000008000140010040F1C1
:101010000780F446404200F003F851F00041604779
:1010200009D0B0FA80F18840C91CC1F58461090576
:1010300001EBD02140057047F0B540F2FF7581EA21
:10104000030C0CF0004C15EA11541DBF15EA1357A0
:10105000AC42AF42E5E0BC41C1F31301C3F313035B
:10106000801A994143F4801304D2641E4000494120
:1010700080185941C90241EA5051B1FBF3F603FB14
:101080001611A2FB0675D7EBC020A94102D2761E2D
:1010900080185941C90241EA5051B1FBF3FE03FBEC
:1010A0001E11A2FB0E75D7EBC020A94103D2AEF1F1
:1010B000010E80185941890241EA9051760546EAAD
:1010C0008E2EB1FBF3F603FB1611A2FB0675D7EBD0
:1010D0008020A94102D2761E80185941C90241EAF6
:1010E00050514EEA060EB1FBF3F603FB1611A2FBBC
:1010F0000675D7EBC020A94102D2761E801859414F
:10110000C90241EA5051B1FBF3F703FB1711A2FBEF
:101110000735D3EBC020A94167F100070CBF00429F
:1011200047F0010766F3D5274FEA1E31B80814F5DA
:10113000806412DDBD0775F1004250EB0E5051EB9B
:10114000045111F5801F5CBF41EA0C01F0BD4CF069
:101150007F6141F0E0410020F0BDBD076D0840EA2D
:101160000E5041F48011D4F10104B4F120060ADAE2
:10117000C4F120060200E04001FA06F3E140184302
:10118000B24015430EE0342C13DCC6F1200445EACE
:1011900040056D0820FA06F2154321FA06F0A14039
:1011A0000D43002175F1004250F1000051EB0C019C
:1011B000F0BD00205FEA0C01F0BDCFB992185B4191
:1011C000B3FA83F704BFB2FA82F6BF190B3FB7F147
:1011D00020062FBF02FA06F3BB40C7F1200622FA11
:1011E00006F638BF3343BA401CB1E419641E33E736
:1011F0007F4231F00041B1FA81F404BFB0FA80F6C9
:10120000A4190B3CB4F120062FBF00FA06F1A1404F
:10121000C4F1200620FA06F638BF3143A0403C1B3B
:101220001AE7AC421ABF05EA1357AF4212E050EA80
:1012300041061CBF52EA4306BFE750EA4107304669
:1012400061461CBF41EA0551F0BD52EA430C08BF9C
:10125000C143F0BD00204FF4001616EB410F98BFBC
:1012600016EB430F08BF16EB410F24BFC14305E047
:1012700016EB430F0CBF61464CEA0551F0BD10B4AC
:1012800050F8041B81B102681218001D50F8043B8D
:10129000DC0744BFA9F10104E31852F8044B43F8FA
:1012A000044B091FF9D1EBE710BC7047B0B581EAD8
:1012B000030C0CF0004C40F2FF7515EA11541DBFF1
:1012C00015EA1357AC42AF4239E0E41923EA45531B
:1012D00043F48013C90241F0004141EA505EC70265
:1012E0001100A7FB020200284FF00000EEFB0120D6
:1012F0004FF00001E3FB072118BF42F00102401844
:1013000000214941E3FB0E01A4F580640F0302D2E2
:1013100052004041494154F101046CDD470872F12B
:10132000004250F1000051EB0451A1F580115CBF67
:1013300041EA0C01B0BD4CEA05510020B0BD05EA00
:101340001357AC4214BFAF4241E050EA410E1CBFFC
:1013500052EA430E02E061460020B0BD24423C4404
:101360001BD15FEA070EF6D0090302BF0146002039
:10137000AEF1140EB1FA81F7AEEB070401FA07FEE5
:101380000C37C7F1200100FA07F7C8404EEA000EFB
:1013900023EA455343F48013A2E733F00043B3FA42
:1013A00083F704BFB2FA82FE77440B3FE41BB7F128
:1013B000200E2FBF02FA0EF3BB40C7F1200E22FA17
:1013C0000EFE38BF43EA0E03BA40641C82E750EABF
:1013D000410E14BF52EA430E6FF000014FF40017A4
:1013E00017EB430F8ABF194617EB410FB5E74CEADD
:1013F00005510020B0BDD4F10104B4F120070FDA8B
:10140000C4F12007520828BF42F0010210FA07F584
:1014100001FA07F7E1BF2A43E0403843E1400FE01B
:10142000352C98DCC7F1200452EA400220FA07F27A
:1014300018BF42F0010231FA07F0A1400A4300212F
:1014400072F1004250F1000051EB0C01B0BD50F8B8
:10145000041B61B150F8042BD30744BFA9F1010369
:101460009A18002342F8043B091FFAD1EFE77047AE
:101470004FEAF17CBCF1E04C2CBFBCF5001F11E041
:101480005FEA4C0C34BFBCF17F5F2EE05FEA9C0C3E
:101490004FEA0C1C4FEA3C0CC10071F100414CEBCF
:1014A00050707047C90241EA5051C00218BF41F064
:1014B000010141F000414FEA6C50C0F109002128C0
:1014C00010D240EACC7CCCF1200C11FA0CF070F177
:1014D0000040CCF1200C21FA0CF00CF0004C40EB59
:1014E0000C0070474FEACC707047490011F5001F9F
:1014F00004D84FEACC10FF30C0057047C8177047BA
:1015000080B500F0B4F800F0D7F800F0ECF800F087
:1015100003F900F018F900F086F800F003F800F085
:101520002DF801BD80B501210820FFF7ABF8202080
:10153000ADF8000010208DF8030003208DF80200A4
:1015400000A98D48FFF7C2FC01212020FFF79AF87F
:101550000420ADF8000010208DF8030003208DF862
:10156000020000A98548FFF7B1FC20218248FFF75F
:101570001FFD04218148FFF71BFD01BD00B585B0AB
:1015800001210920FFF77EF84FF44070ADF80C0000
:1015900003208DF80E0048208DF80F0003A976482F
:1015A000FFF794FC08210120FFF705FD00208DF8CE
:1015B00008004FF4807001900C208DF80900012084
:1015C0008DF80A0001A8FFF701FB0120FFF754FB8B
:1015D00009210120FFF7EFFC00208DF808004FF4EF
:1015E000007001900C208DF8090001208DF80A0090
:1015F00001A8FFF7EBFA0120FFF73EFB4FF4C060B4
:1016000000F0C2F817208DF8000001208DF80100CD
:1016100001208DF8020001208DF8030000A800F0E1
:10162000B8F805B000BD80B501210820FFF72AF801
:101630000320ADF8000003208DF8020010208DF883
:10164000030000A94C48FFF741FC01210420FFF7EB
:1016500019F8FC20ADF8000003208DF802001020DE
:101660008DF8030000A94648FFF730FC01BD80B5A6
:1016700001211020FFF706F82020ADF8000004201B
:101680008DF8030000A93F48FFF720FC1020ADF8BB
:10169000000010208DF8030003208DF8020000A93F
:1016A0003848FFF713FC10213648FFF781FC202152
:1016B0003448FFF77DFC01BD80B501211020FEF705
:1016C000E1FF0E20ADF8000048208DF80300032054
:1016D0008DF8020000A92B48FFF7F8FB0E212948DE
:1016E000FFF763FC01BD80B501211020FEF7CAFFA2
:1016F0004FF47070ADF8000010208DF80300032047
:101700008DF8020000A91F48FFF7E0FB4FF470714D
:101710001C48FFF74DFC01BD80B501211020FEF7EC
:10172000B1FF0120ADF8000010208DF80300032068
:101730008DF8020000A91348FFF7C8FB01211148EA
:10174000FFF736FC01BD80B501211020FEF79AFF9E
:101750004FF4C040ADF8000048208DF8030003208E
:101760008DF8020000A90748FFF7B0FB4FF4C04115
:101770000448FFF71AFC01BD000C014000140140B1
:1017800000080140001001401A4908431A49086046
:10179000704710B4002100220F23C478002C1DD004
:1017A0001549096811F4E061D1F5E061090AD1F148
:1017B0000402CB404178914082781A4011430901DC
:1017C0000E4A037899540121027812F01F029140C9
:1017D0000B4A0078401142F8201009E001210278FC
:1017E00012F01F029140074A0078401142F8201081
:1017F00010BC70470000FA050CED00E000E400E0CA
:1018000000E100E080E100E080B54FF40051DFF836
:10181000C001FFF7BFFB002825D14FF48041DFF85E
:10182000B001FFF7B7FB00281DD1DFF8A801006861
:10183000401CDFF8A01108604021DFF89401FFF799
:10184000B4FB8021DFF88801FFF7B2FB4FF4807111
:10185000DFF87C01FFF7A9FB4FF40071DFF870019E
:10186000FFF7A6FBB3E04FF40051DFF86401FFF788
:1018700091FB012822D14FF48041DFF85401FFF79A
:1018800089FB00281AD10020DFF8481108604021A8
:10189000DFF83C01FFF78CFB8021DFF83401FFF714
:1018A00084FB4FF48071DFF82801FFF77EFB4FF4D3
:1018B0000071DFF81C01FFF77BFB88E04FF400515B
:1018C000DFF80C01FFF766FB002822D14FF48041BE
:1018D000DFF8FC00FFF75EFB01281AD10020DFF8DB
:1018E000F41008604021DFF8E800FFF75EFB80217C
:1018F000DFF8DC00FFF75CFB4FF48071DFF8D0000D
:10190000FFF756FB4FF40071DFF8C400FFF74DFB03
:101910005DE04FF40051DFF8B800FFF73BFB012812
:1019200055D14FF48041DFF8A800FFF733FB0128C1
:101930004DD10020DFF89C1008604021DFF89000B6
:10194000FFF733FB8021DFF88800FFF731FB4FF40E
:101950008071DFF87C00FFF728FB4FF40071DFF89F
:101960007000FFF725FB6420FFF7F8F84021DFF84F
:101970006000FFF71DFB8021DFF85400FFF715FB27
:101980004FF48071DFF84800FFF70FFB4FF4007150
:10199000DFF83C00FFF70CFB4FF49670FFF7DEF822
:1019A0004021DFF82C00FFF703FB8021DFF8200047
:1019B000FFF7FEFA4FF48071DFF81400FFF7F8FA32
:1019C0004FF40071DFF80800FFF7F2FAFFE701BDFE
:1019D000001001406C00002080B501210820FEF7B6
:1019E00061FE01210420FEF74DFE0320ADF800004A
:1019F00018208DF8030003208DF8020000A95E482E
:101A0000FFF764FA01BD00B587B040F2E730ADF8EA
:101A100014004720ADF810000020ADF8160000209B
:101A2000ADF8120004A95548FEF771FC6020ADF82E
:101A300000000120ADF8020051480088401EADF8BA
:101A400006000020ADF8080000A94C48FEF7A9FCEC
:101A500008214A48FEF765FD0120ADF8020049481B
:101A60000088401EADF8060000A94448FEF7E6FCD9
:101A700008214248FEF75EFD01214048FEF726FDA1
:101A800007B000BD80B5FFF7A7FFFFF7BCFF01BDA2
:101A900000B585B001210420FEF704FE3A48FEF7A8
:101AA00047FB41F28830ADF808000020ADF8040093
:101AB0000020ADF80A000020ADF8060001A9324868
:101AC000FEF725FC012240F2CF212F48FEF718FD3A
:101AD00000212D48FEF717FD012201212A48FEF7BB
:101AE00003FD00212848FEF7F1FC4FF4C060FFF72A
:101AF0004BFE1E208DF8000001208DF80100032010
:101B00008DF8020001208DF8030000A8FFF741FEC8
:101B100005B000BD00B585B06021ADF80010012111
:101B2000ADF80210401EADF806000020ADF8080028
:101B300000A91248FEF735FC08211048FEF7F1FC19
:101B400005B000BD00B585B06021ADF800100121E1
:101B5000ADF80210401EADF806000020ADF80800F8
:101B600000A90648FEF76AFC08210448FEF7E2FCDB
:101B700005B000BD0000000000080140000C00405E
:101B80002C0000202E0000200008004080B54F48A7
:101B9000006850F001004D4908604D4800684D490B
:101BA00008404B490860494800684B49084047498C
:101BB00008604648006830F4802044490860444882
:101BC000006830F4FE00424908605FF41F0043499A
:101BD000086000F005F85FF000604149086001BD51
:101BE00080B500F001F801BD82B000200190002016
:101BF00000903648006850F480303449086033481B
:101C0000006810F4003000900198401C019000988A
:101C1000002803D10198B0F5A06FF0D12B480068DF
:101C2000800302D50120009001E000200090009880
:101C3000012847D12B48006850F01000294908605E
:101C40002848006880088000264908602548006808
:101C500050F00200234908601D4800681C490860D4
:101C60001B4800681A4908601948006850F48060F1
:101C7000174908601648006830F47C101449086061
:101C80001348006850F4E810114908600F480068D4
:101C900050F080700D4908600C4800688001FBD549
:101CA0000B480068800880000949086008480068FF
:101CB00050F00200064908600548006810F00C006A
:101CC0000828F9D102B0704700000000001002405F
:101CD000041002400000FFF8FFFFF6FE081002406B
:101CE00008ED00E00020024010B5FFF74FFFFEF7BF
:101CF0004CFFFFF705FCFFF7CBFEFFF7C3FE00F03C
:101D000099F800204149086000F0EEF84FF4FA70AD
:101D1000FFF718FF4FF4FA70FFF7FCFE2BE03C488A
:101D2000006800F03BF904003A4800683A4900F0C6
:101D30004DF93A49096800F08BF9210000F046F9A5
:101D400000F0F2F980B2FFF7FDFE3148006800F0C4
:101D500025F904002F4800682F4900F037F92F4972
:101D6000096800F075F9210000F030F900F0DCF9A5
:101D700080B2FFF7CFFE254800682949884201D28A
:101D8000FFF742FD23480068264900F0EFF9C6D965
:101D900020480068244900F0FBF92CD21C48006858
:101DA00000F0FCF8040021481A49096800F002FA22
:101DB0001F49096800F04CF9210000F007F900F014
:101DC000B3F980B2FFF7BEFE1148006800F0E6F8F4
:101DD000040016480F49096800F0ECF91449096835
:101DE00000F036F9210000F0F1F800F09DF980B222
:101DF000FFF790FEBFE70648006880B2FFF7A2FE3B
:101E00000348006880B2FFF785FEB4E76C0000204D
:101E10001800002048000020000034C31C000020EF
:101E2000F049020001003E4300002A430000344311
:101E30002000002000B587B0012144F20400FEF725
:101E400021FC4FF40070ADF8000018208DF803005D
:101E500003208DF8020000A92148FFF737F84FF45E
:101E60008060ADF8000004208DF8030000A91C4834
:101E7000FFF72CF84FF4C060FFF786FC25208DF8A3
:101E8000040000208DF8050001208DF806000120D7
:101E90008DF8070001A8FFF77CFC4FF41650029064
:101EA0000020ADF80C000020ADF80E000020ADF8C9
:101EB00010000020ADF814000C20ADF8120002A9AB
:101EC0000848FEF7E7FE012240F225510548FEF7DB
:101ED00051FF01210348FEF73FFF07B000BD00009E
:101EE000000801400038014000B587B001210820FA
:101EF000FEF7C8FB01215FF48020FEF7D3FB4FF40F
:101F00008060ADF8000018208DF8030003208DF8E4
:101F1000020000A91F48FEF7D9FF4FF40060ADF89A
:101F2000000004208DF8030000A91A48FEF7CEFF38
:101F300027208DF8040001208DF8050002208DF87F
:101F4000060001208DF8070001A8FFF722FC4FF4DE
:101F5000165002900020ADF80C000020ADF80E00E5
:101F60000020ADF810000020ADF814000C20ADF8F2
:101F7000120002A90848FEF78DFE012240F2255109
:101F80000548FEF7F7FE01210348FEF7E5FE07B01E
:101F900000BD0000000C014000480040002840F156
:101FA0000780F446404200F003F850F000406047DC
:101FB0000AD0B0FA80F18840D1F19D01C90502062E
:101FC00072F1004241EB10207047000090EA010FCF
:101FD00044BF81F0004100F0F5B800BF421A3CBF99
:101FE000801A89184FF0004CC0F3C752FF2A24D042
:101FF000C1F3C75313B3D21AD2F1190327DD4CEA48
:1020000001214CFA03F321EA0303D140C20D4CEA4B
:102010000020401834BF20EA0C004CEA5000D205E2
:1020200053EA006373EB0C0C52EB1020420012F1E8
:10203000807F38BF7047C00DC0057047490212BF8E
:102040009A4200EB5120F8E7D2F11703D9D5704737
:10205000FF2212EAD05C1DBF12EAD153944593428D
:102060002BE09C44D30780EA01021A4043EA002097
:1020700043EA0121A1FB0030410038BF40007CF160
:102080007F010BDBFE294ADA5B0842EAC15153EAC1
:10209000006373F1004C51EB10207047D1F1080C34
:1020A000DCF120012FDB5B0810FA01F10B4373F127
:1020B000004120FA0CF05041704794451CBF02EAE1
:1020C000D153934280EA010202F000421DD0400049
:1020D00019D0490017D05BB9634514D00902B1FA91
:1020E00081F39940BCEB030CC00140F00040C1E714
:1020F0000002B0FA80FC10FA0CF0B3EB0C0CC90132
:1021000041F00041B6E71000704740000AD0490096
:1021100008D010F1807F94BF11F1807F02E042F07F
:10212000FF407047D04370474100090E7F3915D4F6
:10213000D1F11F0114D4400007D2C00140F000408B
:10214000C84048BF6FF000407047C00140F00040F9
:10215000C8404CBF4FF000404042704700207047DD
:1021600000424FF0004058BFC04370474FF0807CA2
:102170001CEB400F94BF1CEB410F05E040EA010C43
:102180005FEA4C0C01D28142704718BF8842704709
:102190004FF0807C1CEB400F94BF1CEB410F05E01F
:1021A00040EA010C5FEA4C0C01D28842704718BF2C
:1021B0008142704790EA010F44BF81F00041FFF770
:1021C0000DBF00BF431A4FF000423EBF5340C01A3C
:1021D000C91800BFD3095FEAD05C13EB400F34BFCE
:1021E000B3EB410F40E07CEBD1530CD342EA012129
:1021F00022D8D1EB402009D3400A28BF5FEA500122
:1022000040EBCC507047401A15D04002B0FA80F233
:10221000521C9040400A4FEA3C23B3EB026384BF58
:1022200000EB730007E040F400001A16DB07C2F170
:102230000102D04018437047182BFCDC31FA03F23E
:1022400002FA03F3591A38BF42F00102D2EB4020E0
:102250003CBF4000ACF1010C5FEACC5CC20572F1FE
:1022600000414CEB5020704713EB400F0FD24B0056
:1022700009D0ACEBD153022B03DB4902172BDDDD78
:1022800070479143401A4300D5D10020704713EBAB
:10229000410FD0D36FF000007047000010B5074920
:1022A00079441831064C7C44163404E00A68081D51
:1022B000511888470146A142F8D110BD080000001E
:1022C000280000008BF1FFFF4C00000030000020D0
:1022D00000000000ABEFFFFF3000000080010000B5
:1022E000000000200000000000F00BF8002801D0E2
:1022F000FFF7D4FF0020C046C046FFF7F5FC00F012
:1023000002F80120704700F001B800000746384687
:1023100000F002F8FBE7000080B5C046C046024A64
:1023200011001820ABBEFBE72600020001488047E1
:10233000014800478D1B00083D230008C046C046E9
:10234000C046C046FFF7D0FFFEF7EEB9FEF7EDB985
:10235000FEF7ECB9FEF7EBB9FEF7EAB9FEF7E9B91B
:10236000FEF7E8B9FEF7E7B9FEF7E6B9FFF7FEBFFB
:10237000FFF7FEBFFFF7FEBFFFF7FEBFFFF7FEBF91
:10238000FFF7FEBFFFF7FEBFFFF7FEBFFFF7FEBF81
:10239000FFF7FEBFFFF7FEBFFFF7FEBFFFF7FEBF71
:1023A000FFF7FEBFFFF7FEBFFFF7FEBFFFF7FEBF61
:1023B000FFF7FEBFFFF7FEBFFFF7FEBFFFF7FEBF51
:1023C000FFF7FEBFFFF7FEBFFEF7BAB9FFF7FEBF8C
:1023D000FFF7FEBFFFF7FEBFFFF7FEBFFEF7C5BA70
:1023E000FFF7FEBFFEF7B0BAFFF7FEBFFFF7FEBF75
:1023F000FFF7FEBFFFF7FEBFFFF7FEBFFFF7FEBF11
:10240000FEF724BAFFF7FEBFFEF761BAFFF7FEBF83
:10241000FFF7FEBFFFF7FEBFFFF7FEBFFFF7FEBFF0
:10242000FFF7FEBFFFF7FEBFFFF7FEBFFFF7FEBFE0
:10243000FFF7FEBFFFF7FEBFFFF7FEBFFFF7FEBFD0
:10244000FFF7FEBFFFF7FEBFFFF7FEBFFFF7FEBFC0
:10245000FFF7FEBFFFF7FEBFFFF7FEBF0000000063
:102460000102030401020304060708093C3C3C3C4A
:102470003C3C3C3C030000000000803F000040402A
:0C2480000204060800A24A04E803E80376
:040000050800233D8F
:00000001FF
