:020000040800F2
:1000000060040020C124000861060008630600089F
:100010006506000867060008690600080000000081
:100020000000000000000000000000006B06000857
:100030006D060008000000006F0600087106000849
:100040000125000805250008092500080D250008E0
:100050001125000815250008192500081D25000890
:100060002125000825250008292500082D25000840
:100070003125000835250008392500083D250008F0
:100080004125000845250008492500084D250008A0
:100090005125000855250008592500087906000853
:1000A0006125000865250008692500086D25000800
:1000B000A308000875250008810800087D250008B0
:1000C0008125000885250008892500088D25000860
:1000D00091250008850700089925000807080008F1
:1000E000A1250008A5250008A9250008AD250008C0
:1000F000B1250008B5250008B9250008BD25000870
:10010000C1250008C5250008C9250008CD2500081F
:10011000D1250008D5250008D9250008DD250008CF
:10012000E1250008E5250008E9250008ED2500087F
:1001300080B5DFF8581488420AD101214FF40060DD
:1001400000F066FA00214FF4006000F061FADDE093
:10015000B0F1804F08D10121012000F069FA00219F
:10016000012000F065FAD1E0DFF82414884208D1BC
:100170000121022000F05CFA0021022000F058FA70
:10018000C4E0DFF81014884208D10121042000F0F7
:100190004FFA0021042000F04BFAB7E0DFF8F81323
:1001A000884208D10121082000F042FA00210820ED
:1001B00000F03EFAAAE0DFF8E413884208D10121FA
:1001C000102000F035FA0021102000F031FA9DE0F7
:1001D000DFF8CC13884208D10121202000F028FA52
:1001E0000021202000F024FA90E0DFF8B8138842C4
:1001F0000AD101214FF4005000F00AFA00214FF417
:10020000005000F005FA81E0DFF89C1388420AD123
:1002100001215FF4002000F0FBF900215FF40020D1
:1002200000F0F6F972E0DFF8841388420AD1012168
:100230005FF4801000F0ECF900215FF4801000F012
:10024000E7F963E0DFF8681388420AD101215FF41F
:10025000001000F0DDF900215FF4001000F0D8F983
:1002600054E0DFF85013884208D10121402000F00B
:10027000DFF90021402000F0DBF947E0DFF8381318
:10028000884208D10121802000F0D2F9002180208D
:1002900000F0CEF93AE0DFF8241388420AD10121B8
:1002A0004FF4807000F0C4F900214FF4807000F02A
:1002B000BFF92BE0DFF8081388420AD101215FF46F
:1002C000803000F0A5F900215FF4803000F0A0F943
:1002D0001CE0DFF8F01288420AD101215FF40030FF
:1002E00000F096F900215FF4003000F091F90DE084
:1002F000DFF8D412884209D101215FF4802000F098
:1003000087F900215FF4802000F082F901BD00220E
:1003100003881A00DFF87432984212D0DFF8843272
:1003200098420ED0B0F1804F0BD0DFF86432984283
:1003300007D0DFF86032984203D0DFF85C32984291
:1003400004D14FF68F731A404B881A43DFF84C32B2
:10035000984208D0DFF84832984204D04FF6FF4365
:100360001A40CB881A4302808A8882850A880285CF
:10037000DFF8182290420FD0DFF8282290420BD0ED
:10038000DFF83C22904207D0DFF83822904203D0B9
:10039000DFF83422904201D1097A0186012181825D
:1003A000704770B4002300240022058C4FF6FE76BF
:1003B00035400584058C2C0085882A00058B2B0090
:1003C0004FF68F752B404FF6FC752B400D882B4355
:1003D0004FF6FD752C400D892C434D882C43DFF8DA
:1003E000AC51A8420FD0DFF8BC51A8420BD0DFF8C7
:1003F000D051A84207D0DFF8CC51A84203D0DFF893
:10040000C851A84213D14FF6F7752C404D892C43A3
:100410004FF6FB752C408D882C434FF6FF652A4024
:100420004FF6FF552A408D892A43CD892A43828081
:100430000383C9888186048470BC704770B400232C
:1004400000240022058C4FF6EF7635400584058C9C
:100450002C0085882A00058B2B0048F6FF752B4061
:100460004FF6FF452B400D8853EA05234FF6DF7505
:100470002C400D8954EA05144D8854EA0514DFF820
:100480000C51A84203D0DFF84451A84217D14FF6CF
:100490007F752C404D8954EA05144FF6BF752C40EA
:1004A0008D8854EA05144FF6FF352A404FF2FF7548
:1004B0002A408D8952EA8502CD8952EA85028280DE
:1004C0000383C9880187048470BC7047C9B20029BE
:1004D00004D0018851F00101018004E001884FF649
:1004E000FE72114001807047D2B2002A03D0828987
:1004F0001143818103E0828932EA010181817047E1
:10050000018582827047C9B2002904D0018851F068
:100510008001018004E001884FF67F721140018064
:1005200070470022038B1A004FF6F7731A400A43F4
:10053000028370470022038B1A004FF2FF731A40A8
:1005400052EA012202837047808C704789B2C94306
:100550000182704730B4002200230024058A0D4038
:100560002B008089084004009BB2002B04D0A4B269
:10057000002C01D0012200E000221000C0B230BCEB
:10058000704789B2C943018270470000002C0140C6
:100590000004004000080040000C00400010004033
:1005A0000014004000340140004C01400050014064
:1005B0000054014000180040001C00400020004092
:1005C0000040014000440140004801400034014027
:1005D000C9B2002905D01E49096808431C490860B2
:1005E00005E01B49096831EA0000194908607047B5
:1005F000C9B2002905D017490968084315490860A0
:1006000005E01449096831EA0000124908607047A2
:10061000C9B2002905D01049096808430E4908608D
:1006200005E00D49096831EA00000B490860704790
:10063000C9B2002905D0094909680843074908607B
:1006400005E00649096831EA00000449086070477E
:10065000181002401C1002400C1002401010024002
:100660007047FEE7FEE7FEE7FEE77047704770471A
:1006700080B500F026FA01BD80B54FF4007000F09F
:100680008FFA002854D04FF4007000F09BFA01203C
:10069000DFF860130860DFF860030068002802D00C
:1006A000012809D040E00120DFF84C130860002049
:1006B000DFF84813086064E00220DFF83C130860AC
:1006C000DFF838030068002809D0022811D00BD3C6
:1006D000042818D012D306281ED019D320E00020F9
:1006E000DFF81C1308604CE00120DFF814130860E9
:1006F00047E00220DFF80813086042E00320DFF83B
:10070000001308603DE00420DFF8F412086038E0D0
:100710000520BB49086034E00620B949086030E094
:100720000020B74908602CE00220B349086028E0A7
:100730004FF4807000F034FA002822D04FF480701B
:1007400000F040FA0120AB490860AB48006800287F
:1007500002D0012801D00DE013E0A8480068401C39
:10076000A6490860A5480068072802DB0020A349C5
:10077000086006E00120A04908600020A049086048
:10078000FFE701BD80B520219E4800F02DFA012829
:1007900033D120219B4800F034FA9B480078002890
:1007A0000BD1984800F01CFAFF282BD10120964964
:1007B000087000209549087024E0924800F010FA73
:1007C000FF280DD100209049087090480078032838
:1007D00002D101208E49086000208C49087011E088
:1007E000884800F0FDF98B49884A127850548748B0
:1007F0000078401C8549087004E04FF480718148FE
:1008000000F0FFF901BD80B52021834800F0ECF92C
:1008100001282FD12021804800F0F3F97F4800788B
:1008200000280BD17C4800F0DBF9552827D10120A6
:100830007A49087000207A49087020E0764800F074
:10084000CFF97849764A1278505475480078401CA0
:100850007349087072480078092810D100206F4948
:10086000087001207049086000F0E8F900206C4928
:10087000087004E04FF48071674800F0C2F901BDD0
:1008800080B501216948FFF765FE002808D00121E5
:100890006648FFF776FE66480068401C64490860B9
:1008A00001BD80B501215FF08040FFF753FE0028B5
:1008B00000F09F8001215FF08040FFF762FE5D48FD
:1008C0000088401C5B4908805A480088B0F5616F79
:1008D00002D100205749088056480088B0F5FA7FB9
:1008E0001FD14021544800F084FA0221534800F0FF
:1008F00080FA0121514800F07CFA80214E4800F036
:1009000078FA10214C4800F074FA20214A4800F08F
:1009100070FA0421484800F06CFA0821464800F0BB
:1009200068FA4448008846490978490001F24E2196
:10093000884203D14021404800F05EFA3D480088DB
:100940003F494978490001F24E21884203D10221F2
:100950003A4800F051FA3748008839498978490007
:1009600001F24E21884203D10121344800F044FABB
:10097000304800883249C978490001F24E21884246
:1009800003D180212C4800F037FA2A4800882C49EE
:100990000979490001F24E21884203D110212648ED
:1009A00000F02AFA2348008825494979490001F2D4
:1009B0004E21884203D120211F4800F01DFA1D4816
:1009C00000881F498979490001F24E21884203D1EC
:1009D0000421194800F010FA164800881849C9790E
:1009E000490001F24E21884203D10821124800F04B
:1009F00003FA01BD40000020380000203C00002028
:100A00004800002000380140560000205800002017
:100A10002000002044000020004800405700002033
:100A2000590000201400002024000020000800408D
:100A30004C0000205400002000080140000C014040
:100A40000000002040B2002808D509012A4A40B21F
:100A500010F00F00801800F8041C03E00901274A79
:100A600040B28154704780B5411EB1F1807F01D3FF
:100A700001200EE0401E224908600F215FF0FF3088
:100A8000FFF7E0FF00201F49086007201E490860AB
:100A9000002002BD01B400981E4908601D4800688E
:100AA0000028FBD101B0704701B400984FF47A716F
:100AB000484318490860174800680028FBD101B076
:100AC000704714480068002804D012480068401E8F
:100AD00010490860704780B50C4800680C49B0FBAD
:100AE000F1F0FFF7C0FF002800D0FEE700215FF023
:100AF000FF30FFF7A7FF01BD18ED00E000E400E0C4
:100B000014E000E018E000E010E000E00800002041
:100B100040420F005000002000212C4A1100827931
:100B2000002A35D0294A126803689A43274B1A6075
:100B3000274A126803689A43254B1A6002795118B4
:100B40000A6803681A430A602249096802689143E7
:100B5000204A116020490968026891431E4A1160C9
:100B6000417910290CD11B49096802681143194ABF
:100B700011601949096800680843174908600EE0C8
:100B80001249427951180A6800681043086006E06B
:100B9000027951180A68006832EA0000086070475C
:100BA00000210022094B1B6803401A000B4B1B68F5
:100BB000034203D0002A01D0012100E000210800F7
:100BC000C0B270470549086070470000000401404A
:100BD00004040140080401400C04014014040140D5
:100BE0008088C005C00D7047002289B2B1F5007F32
:100BF0000088084201D0012200E000221000C0B2AB
:100C0000704789B28A0589B2C9430180704710B420
:100C100050F8041B81B102681218001D50F8043B03
:100C2000DC0744BFA9F10104E31852F8044B43F870
:100C3000044B091FF9D1EBE710BC704780B52C4875
:100C40000068002852D0002029490860294800780F
:100C500053284BD1274880782649497851EA00200B
:100C600000F0F8F80022244B00F00CF90022234B8E
:100C700000F03CFA00F00CFB214908601D480079A7
:100C80001C49C97851EA002000F0E4F800221A4B10
:100C900000F0F8F80022194B00F028FA00F0F8FAFA
:100CA00018490860134880791249497951EA0020AF
:100CB00000F0D0F80022104B00F0E4F800220F4BB7
:100CC00000F014FA00F0E4FA0F4908600948007ACD
:100CD0000849C97951EA002000F0BCF800220B4B0A
:100CE00000F0D0F800F0D4FA0949086001BD000016
:100CF00024000020140000200000E0400080664036
:100D0000280000202C000020300000200000594066
:100D100034000020F0B40022002600240025002327
:100D2000002791F803C01CF00F0C624691F803C035
:100D30005FEACC6C01D58B781A430B781B0621D067
:100D40000368002406E0CD78482D02D10125A54096
:100D50000561641C082C14D20125A5400E882E4084
:100D6000AE42F6D1A5000F2616FA05F7BB4312FADC
:100D700005F52B43CD78282DE5D10125A54045610A
:100D8000E7E703600B88FF2B26DD4368002420E0A3
:100D9000012514F10806B5400E882E40AE4217D149
:100DA000A5000F2616FA05F7BB4312FA05F52B43EB
:100DB000CD78282D04D1012514F10806B5404561F0
:100DC000CD78482D04D1012514F10806B540056100
:100DD000641C082CDCD34360F0BC704700228068A0
:100DE00089B2084201D0012200E000221000C0B206
:100DF000704789B20161704789B24161704710B490
:100E000000220F2311F00304E4B2A400A3401A004F
:100E10000F4BC9B28C1053F8243033EA02020C4B4A
:100E2000C9B28C1043F82420094AC9B28B1052F879
:100E30002320C0B211F00303DBB29B0098401043A3
:100E4000034AC9B2891042F8210010BC7047000063
:100E500008000140010040F10980F446404200F0E2
:100E600005F851F000416047010000BF09D0B0FA19
:100E700080F18840C91CC1F58461090501EBD021CE
:100E800040057047F0B540F2FF7581EA030C0CF0A5
:100E9000004C15EA11541DBF15EA1357AC42AF427E
:100EA000E5E0BC41C1F31301C3F31303801A994178
:100EB00043F4801304D2641E400049418018594114
:100EC000C90241EA5051B1FBF3F603FB1611A2FB34
:100ED0000675D7EBC020A94102D2761E8018594171
:100EE000C90241EA5051B1FBF3FE03FB1E11A2FB04
:100EF0000E75D7EBC020A94103D2AEF1010E8018C8
:100F00005941890241EA9051760546EA8E2EB1FB9D
:100F1000F3F603FB1611A2FB0675D7EB8020A9415F
:100F200002D2761E80185941C90241EA50514EEA58
:100F3000060EB1FBF3F603FB1611A2FB0675D7EB09
:100F4000C020A94102D2761E80185941C90241EA47
:100F50005051B1FBF3F703FB1711A2FB0735D3EB9D
:100F6000C020A94167F100070CBF004247F001070C
:100F700066F3D5274FEA1E31B80814F5806412DDF8
:100F8000BD0775F1004250EB0E5051EB045111F5C5
:100F9000801F5CBF41EA0C01F0BD4CF07F6141F065
:100FA000E0410020F0BDBD076D0840EA0E5041F45D
:100FB0008011D4F10104B4F120060ADAC4F120064C
:100FC0000200E04001FA06F3E1401843B240154345
:100FD0000EE0342C13DCC6F1200445EA40056D0810
:100FE00020FA06F2154321FA06F0A1400D43002134
:100FF00075F1004250F1000051EB0C01F0BD0020F2
:101000005FEA0C01F0BDCFB992185B41B3FA83F7E8
:1010100004BFB2FA82F6BF190B3FB7F120062FBF0B
:1010200002FA06F3BB40C7F1200622FA06F638BFE3
:101030003343BA401CB1E419641E33E77F4231F0F8
:101040000041B1FA81F404BFB0FA80F6A4190B3C58
:10105000B4F120062FBF00FA06F1A140C4F120062A
:1010600020FA06F638BF3143A0403C1B1AE7AC42D9
:101070001ABF05EA1357AF4212E050EA41061CBFFF
:1010800052EA4306BFE750EA4107304661461CBFBB
:1010900041EA0551F0BD52EA430C08BFC143F0BD1F
:1010A00000204FF4001616EB410F98BF16EB430FCC
:1010B00008BF16EB410F24BFC14305E016EB430FF9
:1010C0000CBF61464CEA0551F0BD50F8041B61B1FC
:1010D00050F8042BD30744BFA9F101039A18002349
:1010E00042F8043B091FFAD1EFE77047B0B581EA37
:1010F000030C0CF0004C40F2FF7515EA11541DBFB3
:1011000015EA1357AC42AF4239E0E41923EA4553DC
:1011100043F48013C90241F0004141EA505EC70226
:101120001100A7FB020200284FF00000EEFB012097
:101130004FF00001E3FB072118BF42F00102401805
:1011400000214941E3FB0E01A4F580640F0302D2A4
:1011500052004041494154F101046CDD470872F1ED
:10116000004250F1000051EB0451A1F580115CBF29
:1011700041EA0C01B0BD4CEA05510020B0BD05EAC2
:101180001357AC4214BFAF4241E050EA410E1CBFBE
:1011900052EA430E02E061460020B0BD24423C44C6
:1011A0001BD15FEA070EF6D0090302BF01460020FB
:1011B000AEF1140EB1FA81F7AEEB070401FA07FEA7
:1011C0000C37C7F1200100FA07F7C8404EEA000EBD
:1011D00023EA455343F48013A2E733F00043B3FA04
:1011E00083F704BFB2FA82FE77440B3FE41BB7F1EA
:1011F000200E2FBF02FA0EF3BB40C7F1200E22FAD9
:101200000EFE38BF43EA0E03BA40641C82E750EA80
:10121000410E14BF52EA430E6FF000014FF4001765
:1012200017EB430F8ABF194617EB410FB5E74CEA9E
:1012300005510020B0BDD4F10104B4F120070FDA4C
:10124000C4F12007520828BF42F0010210FA07F546
:1012500001FA07F7E1BF2A43E0403843E1400FE0DD
:10126000352C98DCC7F1200452EA400220FA07F23C
:1012700018BF42F0010231FA07F0A1400A430021F1
:1012800072F1004250F1000051EB0C01B0BD0000C2
:101290004FEAF17CBCF1E04C2CBFBCF5001F11E023
:1012A0005FEA4C0C34BFBCF17F5F2EE05FEA9C0C20
:1012B0004FEA0C1C4FEA3C0CC10071F100414CEBB1
:1012C00050707047C90241EA5051C00218BF41F046
:1012D000010141F000414FEA6C50C0F109002128A2
:1012E00010D240EACC7CCCF1200C11FA0CF070F159
:1012F0000040CCF1200C21FA0CF00CF0004C40EB3B
:101300000C0070474FEACC707047490011F5001F80
:1013100004D84FEACC10FF30C0057047C81770479B
:1013200080B54FF40051BA48FFF758FD002819D195
:101330004FF48041B648FFF751FD002812D14021FB
:10134000B348FFF756FD8021B148FFF755FD4FF434
:101350008071AF48FFF74DFD4FF40071AC48FFF7C7
:101360004BFD62E04FF40051A948FFF737FD01281B
:1013700019D14FF48041A648FFF730FD002812D163
:101380004021A348FFF735FD8021A148FFF734FD38
:101390004FF480719E48FFF72FFD4FF400719C4879
:1013A000FFF727FD41E04FF400519948FFF716FD84
:1013B000002819D14FF480419548FFF70FFD01280F
:1013C00012D140219248FFF717FD80219048FFF786
:1013D00010FD4FF480718E48FFF70BFD4FF4007144
:1013E0008B48FFF709FD20E04FF400518848FFF7D4
:1013F000F5FC012819D14FF480418548FFF7EEFC38
:10140000012812D140218248FFF7F6FC8021804854
:10141000FFF7F2FC4FF480717D48FFF7EDFC4FF4CD
:1014200000717B48FFF7E8FCFFE701BD80B5402174
:101430007748FFF7E1FC80217548FFF7DDFC4FF4AA
:1014400080717348FFF7D8FC4FF400717048FFF7C4
:10145000D3FC00206F49087046206E494870002078
:101460006C49C8704FF4FA70FFF71EFB00F0D8F813
:10147000694900F069F903D9002100F077F94ED8E5
:1014800040216348FFF7B5FC80216148FFF7B4FCB9
:101490004FF480715E48FFF7ACFC4FF400715C487C
:1014A000FFF7AAFC4FF49670FFF7FEFA4021584868
:1014B000FFF7A2FC80215648FFF79EFC4FF4807195
:1014C0005348FFF799FC4FF400715148FFF794FC23
:1014D000B4205049087000204E49C8704FF4FA708B
:1014E000FFF7E2FA00204B4948703220FFF7DCFAA0
:1014F00040214748FFF77DFC80214548FFF77CFCF1
:101500004FF480714248FFF774FC4FF4007140487B
:10151000FFF772FC4FF4FA70FFF7C6FA49E0B42007
:101520003C49087000203B49487000203949C87088
:101530004FF4FA70FFF7B8FA40213548FFF75CFC2A
:1015400080213348FFF755FC4FF480713048FFF796
:1015500053FC4FF400712E48FFF74BFC4FF4FA7028
:10156000FFF7A2FA40212A48FFF746FC80212848CD
:10157000FFF73FFC4FF480712548FFF73AFC4FF42A
:1015800000712348FFF738FCFA20FFF78DFA40215D
:101590001F48FFF731FC80211D48FFF72DFC4FF459
:1015A00080711B48FFF728FC4FF400711848FFF7C3
:1015B00023FC01BD80B500F0EBF8FFF78CFA00F0DA
:1015C00095F900F0D7FA00F072FB00F06AFBB42046
:1015D0001049087000200F49487000200D49C8705C
:1015E0004FF4027000F0A5FB40F2122000F0B9FBAE
:1015F000FFF796FE00F014F8084900F0A5F8EFD9BF
:10160000002100F0B3F8EBD9FFF710FFE8E7000086
:101610000010014000000020010070410100004165
:101620002DE9F041002000265FF00008002737E098
:101630003B48FEF789FF80461FFA88F84046FFF7CF
:1016400013FC0022374BFFF71DFC0022364BFFF73F
:101650004DFD04000D001FFA88F84046FFF704FC1A
:101660000022304BFFF70EFC00222F4BFFF73EFD10
:1016700022002B00FFF73AFD00222C4B00F094FBD8
:1016800000F006FCFFF704FE00F07AFC0022284B75
:1016900000F08AFBFFF7FCFD310000F099FC06002A
:1016A000FFB2052F33D010212248FFF7A2FB0C20F8
:1016B000FFF7F0F910211F48FFF79EFB01211848A2
:1016C000FEF704FF20211B48FFF788FBC0B21A4930
:1016D000096808430028F5D0002018490880202117
:1016E0001448FFF77BFB002803D01348006800284C
:1016F000F5D000210A48FEF7E9FE7F1C0E4800687D
:10170000002895D000200C490860002006E0300039
:101710000B4900F09FFC0B4900F09CFCBDE8F081F8
:10172000000800400000244000003140008863C0F1
:1017300000002840001001404C0000202408004018
:101740000000A040000020414FF0807C1CEB400FC7
:1017500094BF1CEB410F05E040EA010C5FEA4C0C22
:1017600001D28142704718BF884270474FF0807C99
:101770001CEB400F94BF1CEB410F05E040EA010C4D
:101780005FEA4C0C01D28842704718BF8142704713
:1017900080B54F48006850F001004D4908604D4841
:1017A00000684D4908404B490860494800684B496A
:1017B0000840474908604648006830F480204449A2
:1017C00008604448006830F4FE00424908605FF455
:1017D0001F004349086000F005F85FF000604149D0
:1017E000086001BD80B500F001F801BD82B00020A5
:1017F0000190002000903648006850F48030344951
:1018000008603348006810F4003000900198401CD4
:1018100001900098002803D10198B0F5A06FF0D195
:101820002B480068800302D50120009001E00020D1
:1018300000900098012847D12B48006850F0100014
:101840002949086028480068800880002649086007
:101850002548006850F00200234908601D480068D0
:101860001C4908601B4800681A490860194800684C
:1018700050F48060174908601648006830F47C1006
:10188000144908601348006850F4E81011490860D2
:101890000F48006850F080700D4908600C480068DF
:1018A0008001FBD50B48006880088000094908606A
:1018B0000848006850F002000649086005480068C2
:1018C00010F00C000828F9D102B0704700000000A9
:1018D00000100240041002400000FFF8FFFFF6FE77
:1018E0000810024008ED00E00020024080B500F042
:1018F000B4F800F0D7F800F0ECF800F003F900F0CD
:1019000018F900F086F800F003F800F02DF801BD9A
:1019100080B501210820FEF75BFE2020ADF8000015
:1019200010208DF8030003208DF8020000A98D48D7
:10193000FFF7F0F901212020FEF74AFE0420ADF860
:10194000000010208DF8030003208DF8020000A98C
:101950008548FFF7DFF920218248FFF74DFA04217F
:101960008148FFF749FA01BD00B585B00121092082
:10197000FEF72EFE4FF44070ADF80C0003208DF8FA
:101980000E0048208DF80F0003A97648FFF7C2F932
:1019900008210120FFF733FA00208DF808004FF4EA
:1019A000807001900C208DF8090001208DF80A004C
:1019B00001A8FFF7B1F80120FFF704F90921012080
:1019C000FFF71DFA00208DF808004FF40070019019
:1019D0000C208DF8090001208DF80A0001A8FFF7FE
:1019E0009BF80120FFF7EEF84FF4C06000F0B0FB69
:1019F00017208DF8000001208DF8010001208DF8DE
:101A0000020001208DF8030000A800F0A6FB05B03D
:101A100000BD80B501210820FEF7DAFD0320ADF8F6
:101A2000000003208DF8020010208DF8030000A9AB
:101A30004C48FFF76FF901210420FEF7C9FDFC2097
:101A4000ADF8000003208DF8020010208DF803008F
:101A500000A94648FFF75EF901BD80B501211020BD
:101A6000FEF7B6FD2020ADF8000004208DF803003D
:101A700000A93F48FFF74EF91020ADF800001020F4
:101A80008DF8030003208DF8020000A93848FFF705
:101A900041F910213648FFF7AFF920213448FFF70C
:101AA000ABF901BD80B501211020FEF791FD0E209C
:101AB000ADF8000048208DF8030002208DF80200E8
:101AC00000A92B48FFF726F90E212948FFF791F9C5
:101AD00001BD80B501211020FEF77AFD4FF4707032
:101AE000ADF8000010208DF8030003208DF80200EF
:101AF00000A91F48FFF70EF94FF470711C48FFF75B
:101B00007BF901BD80B501211020FEF761FD0120A8
:101B1000ADF8000010208DF8030003208DF80200BE
:101B200000A91348FFF7F6F801211148FFF764F9FF
:101B300001BD80B501211020FEF74AFD4FF4C040E1
:101B4000ADF8000048208DF8030003208DF8020056
:101B500000A90748FFF7DEF84FF4C0410448FFF73B
:101B600048F901BD000C014000140140000801408B
:101B70000010014000B585B001210120FEF738FDBD
:101B80005FF08040FEF7D4FA40F28F10ADF8080005
:101B90000020ADF804000020ADF80A000020ADF8E8
:101BA000060001A95FF08040FEF7B1FB01215FF064
:101BB0008040FEF7CBFC012201215FF08040FEF760
:101BC00093FC01215FF08040FEF780FC4FF4C06081
:101BD00000F0BEFA1C208DF8000000208DF80100F6
:101BE00002208DF8020001208DF8030000A800F00B
:101BF000B4FA05B000BD80B501210820FEF7F8FC5D
:101C000001210420FEF7E4FC0320ADF800001820B9
:101C10008DF8030003208DF8020000A95D48FFF74E
:101C200079F801BD00B587B040F2E730ADF8140097
:101C30004720ADF810000020ADF816000020ADF8E8
:101C4000120004A95448FEF762FB6020ADF80000C2
:101C50000120ADF8020051480088401EADF8060092
:101C60000020ADF8080000A94B48FEF79AFB0821B8
:101C70004948FEF756FC0120ADF8020048480088AC
:101C8000401EADF8060000A94348FEF7D7FB082127
:101C90004148FEF74FFC01213F48FEF717FC07B013
:101CA00000BD80B5FFF7A7FFFFF7BCFF01BD00B582
:101CB00085B001210420FEF79BFC3A48FEF738FA74
:101CC00041F28830ADF808000020ADF80400002093
:101CD000ADF80A000020ADF8060001A93148FEF772
:101CE00016FB012240F2CF212E48FEF709FC00210D
:101CF0002C48FEF708FC012201212A48FEF7F4FBDC
:101D000000212848FEF7E2FB4FF4C06000F020FA03
:101D10001E208DF8000001208DF8010003208DF8B1
:101D2000020001208DF8030000A800F016FA05B0AB
:101D300000BD00B585B06021ADF800100121ADF8FF
:101D40000210401EADF806000020ADF8080000A902
:101D50001148FEF726FB08210F48FEF7E2FB05B00D
:101D600000BD00B585B06021ADF800100121ADF8CF
:101D70000210401EADF806000020ADF8080000A9D2
:101D80000548FEF75BFB08210348FEF7D3FB05B0CF
:101D900000BD000000080140000C004010000020C1
:101DA000120000200008004070B44FF0004591EA96
:101DB000030C44BF6B4000F00BBA00BF841A71EBF8
:101DC000030603D2001BB141121973414FF4001CEA
:101DD0001CEB410F34BF7CEB430443E00C0DA4EB40
:101DE0001356352E50DC45EAC323DB0A45EAC121F0
:101DF000C912B6F120050DDD63FA05F6EB4086EA5F
:101E00000305124218BF45F00105C01851F1000149
:101E10000CD213E062FA06F5F2405540F3415A4005
:101E2000B340F3405A408018594107D349085FEA4C
:101E300030005FEA350528BF45F0010501F5801146
:101E4000420875F1004250F1000041EB045170BCB2
:101E50004FF4001C1CEB410F38BF70470020090DE8
:101E6000090570471CEB410F10D252EA43060BD014
:101E7000BCEB410F05D80C0DAB43661E342EB5DD0F
:101E800002E0AB438018594170BC704770BC70478A
:101E900040F2FF7C0B0D4DD0634566D230B421EA91
:101EA000035141F4801103F2FD3C5FEA5C0C01D365
:101EB00000184941890041EA907180004FF44014B4
:101EC0000023E202D50AB1F5100107D46D081DD236
:101ED000091B641900184941491BF7D56D080AD23E
:101EE0000919641B00184941491BEFD56D08F7D348
:101EF00001E0520817D0C01861419B1AAC4100188C
:101F00004941801AA941F4D452080AD0C01AA1410B
:101F10009B186C4100184941801AA941E9D4520824
:101F2000F4D15B1C6C4161084FEA330001EB0C51AA
:101F300030BC704750EA0103FBD030B4B1FA81F3F2
:101F400011B9B0FA80F41B190B3BB3F120042FBF79
:101F500000FA04F19940C3F1200420FA04F438BFD8
:101F600021439840D3F101039DE76345E1D011F58A
:101F7000801FDED850EA4101DBD0D94300F0DEB942
:101F80005FF0FF0C1CEAD05114BF614506E0C110A0
:101F9000400721F0E04101F16051704779B900F04C
:101FA000004100020AD0B0FA80FC00FA0CF001F106
:101FB0006051A1EB0C5101EBD0214005704741026B
:101FC0000CBF40F4E0016FF00001002070470000FA
:101FD00090EA010F44BF81F0004100F0B5B900BFA5
:101FE000421A3CBF801A89184FF0004CC0F3C75208
:101FF000FF2A24D0C1F3C75313B3D21AD2F1190365
:1020000027DD4CEA01214CFA03F321EA0303D14016
:10201000C20D4CEA0020401834BF20EA0C004CEA04
:102020005000D20553EA006373EB0C0C52EB102006
:10203000420012F1807F38BF7047C00DC005704765
:10204000490212BF9A4200EB5120F8E7D2F1170380
:10205000D9D5704710B5FF2313EAD0541DBF13EA3A
:10206000D1529C429A4239E0A41ADA0780EA01036D
:10207000134042EA012142EA0020421A3CBF641E9A
:1020800001EB4202090AB2FBF1FE01FB1E22120221
:10209000B2FBF1F001FB10226EF30F201202B2FB33
:1020A000F1FE4EEA00207F3406DDFE2C24DA53EAEE
:1020B000500050EBC45010BDD4F1020401FB1E22AD
:1020C00040F08071192C1DDC21FA04F0C4F12004C9
:1020D000A140114371F10042584110BD9C421ABF0A
:1020E00003EAD1529A420FE080EA010E0EF000435B
:1020F000400004D0490016D143F0FF4010BD490014
:1021000008BFD343180010BD9C4205D1D21AF7D0A6
:1021100001F00041484010BD4A0212BF0846484045
:1021200000F0004010BD4AB90902B1FA81F29140B5
:1021300044B1A418C00140F000409EE7C90141F03D
:10214000004152420002B0FA80F4A040141B94E710
:102150001A4908431A490860704710B40021002248
:102160000F23C478002C1DD01549096811F4E061D3
:10217000D1F5E061090AD1F10402CB4041789140E8
:1021800082781A40114309010E4A037899540121BB
:10219000027812F01F0291400B4A0078401142F879
:1021A000201009E00121027812F01F029140074A35
:1021B0000078401142F8201010BC70470000FA056A
:1021C0000CED00E000E400E000E100E080E100E070
:1021D000841A71EB030604D26E40001BB141121940
:1021E00073414FF4001C1CEB410F34BF7CEB4306E2
:1021F00084E00C0DA4EB1356362E7DDC012E43DC5F
:1022000045EAC32343EA525312BFD20292025B084B
:10221000240545EAC12141EA5051D2EBC020994141
:1022200025D407D1B0FA80F610FA06F164D0002068
:10223000203608E0B1FA81F6B140C6F1200220FA5A
:1022400002F21143B0404FEAF474B4EB465434F058
:1022500001064FEA74040AD8D6F50016760D04F08C
:102260000044F04061FA06F25040F1404840C00A94
:1022700040EA415021F0004128BF5FEA500550F18B
:10228000000044EBD12137E045EAC323DB0A45EAED
:10229000C121C90AB6F120050EDD42EA0242120C44
:1022A000C5F1200603FA06F6EB4042EA06056D4248
:1022B000984161F100010DE062FA06F5F2405540E7
:1022C00063FA06FC82EA0C02F3405A406D429041E8
:1022D00061EB030111F4801F05D1641E620502D079
:1022E0006D004041494121F48011430875F10043DC
:1022F00050F1000041EB045170BC70471CEB410FE2
:1023000015D223F0004352EA43060BD04FEA4C0C9F
:10231000BCEB410F04D80C0D661E342EB7DDEBE785
:10232000801A994150EA410608BF0021E4E708BF3E
:102330001CEB430F28BF6FF00001DDE71FB500F075
:102340006FF8212101601FBD431A4FF000423EBFCC
:102350005340C01AC91800BFD3095FEAD05C13EB21
:10236000400F34BFB3EB410F40E07CEBD1530CD3B3
:1023700042EA012122D8D1EB402009D3400A28BFEC
:102380005FEA500140EBCC507047401A15D0400234
:10239000B0FA80F2521C9040400A4FEA3C23B3EB63
:1023A000026384BF00EB730007E040F400001A16DC
:1023B000DB07C2F10102D04018437047182BFCDC48
:1023C00031FA03F202FA03F3591A38BF42F001025C
:1023D000D2EB40203CBF4000ACF1010C5FEACC5C8A
:1023E000C20572F100414CEB5020704713EB400FD7
:1023F0000FD24B0009D0ACEBD153022B03DB4902C7
:10240000172BDDDD70479143401A4300D5D10020E2
:10241000704713EB410FD0D36FF0000070470000FE
:10242000014800F003B800000C00002070470000D5
:1024300010B5074979441831064C7C44163404E041
:102440000A68081D511888470146A142F8D110BDFD
:10245000080000002800000073ECFFFF48000000A7
:102460001400002000000000A7E7FFFF1400000098
:1024700080010000000000200000000000F00BF8C8
:10248000002801D0FFF7D4FF0020C046C046FFF768
:1024900091F800F002F80120704700F001B8000048
:1024A0000746384600F002F8FBE7000080B5C0465A
:1024B000C046024A11001820ABBEFBE7260002000E
:1024C000014880470148004791170008D1240008BF
:1024D000C046C046C046C046FFF7D0FFFEF7C0B8B2
:1024E000FEF7BFB8FEF7BEB8FEF7BDB8FEF7BCB842
:1024F000FEF7BBB8FEF7BAB8FEF7B9B8FEF7B8B842
:10250000FFF7FEBFFFF7FEBFFFF7FEBFFFF7FEBFFF
:10251000FFF7FEBFFFF7FEBFFFF7FEBFFFF7FEBFEF
:10252000FFF7FEBFFFF7FEBFFFF7FEBFFFF7FEBFDF
:10253000FFF7FEBFFFF7FEBFFFF7FEBFFFF7FEBFCF
:10254000FFF7FEBFFFF7FEBFFFF7FEBFFFF7FEBFBF
:10255000FFF7FEBFFFF7FEBFFFF7FEBFFEF78CB829
:10256000FFF7FEBFFFF7FEBFFFF7FEBFFFF7FEBF9F
:10257000FEF797B9FFF7FEBFFEF782B9FFF7FEBF80
:10258000FFF7FEBFFFF7FEBFFFF7FEBFFFF7FEBF7F
:10259000FFF7FEBFFEF7F6B8FFF7FEBFFEF733B951
:1025A000FFF7FEBFFFF7FEBFFFF7FEBFFFF7FEBF5F
:1025B000FFF7FEBFFFF7FEBFFFF7FEBFFFF7FEBF4F
:1025C000FFF7FEBFFFF7FEBFFFF7FEBFFFF7FEBF3F
:1025D000FFF7FEBFFFF7FEBFFFF7FEBFFFF7FEBF2F
:1025E000FFF7FEBFFFF7FEBFFFF7FEBFFFF7FEBF1F
:1025F0003C3C3C3C3C3C3C3C00A24A04000000000B
:04260000E803E80300
:04000005080024D1FA
:00000001FF
